{
  "contractName": "CRC141",
  "abi": [
    {
      "inputs": [
        {
          "internalType": "address payable",
          "name": "_cfont",
          "type": "address"
        }
      ],
      "stateMutability": "nonpayable",
      "type": "constructor"
    },
    {
      "anonymous": false,
      "inputs": [
        {
          "indexed": true,
          "internalType": "address",
          "name": "owner",
          "type": "address"
        },
        {
          "indexed": true,
          "internalType": "address",
          "name": "approved",
          "type": "address"
        },
        {
          "indexed": true,
          "internalType": "uint256",
          "name": "tokenId",
          "type": "uint256"
        }
      ],
      "name": "Approval",
      "type": "event"
    },
    {
      "anonymous": false,
      "inputs": [
        {
          "indexed": true,
          "internalType": "address",
          "name": "owner",
          "type": "address"
        },
        {
          "indexed": true,
          "internalType": "address",
          "name": "operator",
          "type": "address"
        },
        {
          "indexed": false,
          "internalType": "bool",
          "name": "approved",
          "type": "bool"
        }
      ],
      "name": "ApprovalForAll",
      "type": "event"
    },
    {
      "anonymous": false,
      "inputs": [
        {
          "indexed": false,
          "internalType": "uint256",
          "name": "id",
          "type": "uint256"
        },
        {
          "indexed": false,
          "internalType": "string",
          "name": "hash",
          "type": "string"
        },
        {
          "indexed": false,
          "internalType": "string",
          "name": "title",
          "type": "string"
        },
        {
          "indexed": false,
          "internalType": "string",
          "name": "genre",
          "type": "string"
        },
        {
          "indexed": false,
          "internalType": "uint256",
          "name": "created",
          "type": "uint256"
        },
        {
          "indexed": false,
          "internalType": "string",
          "name": "album",
          "type": "string"
        },
        {
          "indexed": false,
          "internalType": "string",
          "name": "coverURI",
          "type": "string"
        },
        {
          "indexed": false,
          "internalType": "address",
          "name": "creator",
          "type": "address"
        }
      ],
      "name": "TokenUploaded",
      "type": "event"
    },
    {
      "anonymous": false,
      "inputs": [
        {
          "indexed": true,
          "internalType": "address",
          "name": "from",
          "type": "address"
        },
        {
          "indexed": true,
          "internalType": "address",
          "name": "to",
          "type": "address"
        },
        {
          "indexed": true,
          "internalType": "uint256",
          "name": "tokenId",
          "type": "uint256"
        }
      ],
      "name": "Transfer",
      "type": "event"
    },
    {
      "inputs": [],
      "name": "_name",
      "outputs": [
        {
          "internalType": "string",
          "name": "",
          "type": "string"
        }
      ],
      "stateMutability": "view",
      "type": "function",
      "constant": true
    },
    {
      "inputs": [
        {
          "internalType": "address",
          "name": "to",
          "type": "address"
        },
        {
          "internalType": "uint256",
          "name": "tokenId",
          "type": "uint256"
        }
      ],
      "name": "approve",
      "outputs": [],
      "stateMutability": "nonpayable",
      "type": "function"
    },
    {
      "inputs": [
        {
          "internalType": "address",
          "name": "owner",
          "type": "address"
        }
      ],
      "name": "balanceOf",
      "outputs": [
        {
          "internalType": "uint256",
          "name": "",
          "type": "uint256"
        }
      ],
      "stateMutability": "view",
      "type": "function",
      "constant": true
    },
    {
      "inputs": [
        {
          "internalType": "uint256",
          "name": "tokenId",
          "type": "uint256"
        }
      ],
      "name": "getApproved",
      "outputs": [
        {
          "internalType": "address",
          "name": "",
          "type": "address"
        }
      ],
      "stateMutability": "view",
      "type": "function",
      "constant": true
    },
    {
      "inputs": [
        {
          "internalType": "address",
          "name": "owner",
          "type": "address"
        },
        {
          "internalType": "address",
          "name": "operator",
          "type": "address"
        }
      ],
      "name": "isApprovedForAll",
      "outputs": [
        {
          "internalType": "bool",
          "name": "",
          "type": "bool"
        }
      ],
      "stateMutability": "view",
      "type": "function",
      "constant": true
    },
    {
      "inputs": [],
      "name": "name",
      "outputs": [
        {
          "internalType": "string",
          "name": "",
          "type": "string"
        }
      ],
      "stateMutability": "view",
      "type": "function",
      "constant": true
    },
    {
      "inputs": [
        {
          "internalType": "uint256",
          "name": "tokenId",
          "type": "uint256"
        }
      ],
      "name": "ownerOf",
      "outputs": [
        {
          "internalType": "address",
          "name": "",
          "type": "address"
        }
      ],
      "stateMutability": "view",
      "type": "function",
      "constant": true
    },
    {
      "inputs": [
        {
          "internalType": "address",
          "name": "from",
          "type": "address"
        },
        {
          "internalType": "address",
          "name": "to",
          "type": "address"
        },
        {
          "internalType": "uint256",
          "name": "tokenId",
          "type": "uint256"
        }
      ],
      "name": "safeTransferFrom",
      "outputs": [],
      "stateMutability": "nonpayable",
      "type": "function"
    },
    {
      "inputs": [
        {
          "internalType": "address",
          "name": "from",
          "type": "address"
        },
        {
          "internalType": "address",
          "name": "to",
          "type": "address"
        },
        {
          "internalType": "uint256",
          "name": "tokenId",
          "type": "uint256"
        },
        {
          "internalType": "bytes",
          "name": "_data",
          "type": "bytes"
        }
      ],
      "name": "safeTransferFrom",
      "outputs": [],
      "stateMutability": "nonpayable",
      "type": "function"
    },
    {
      "inputs": [
        {
          "internalType": "address",
          "name": "operator",
          "type": "address"
        },
        {
          "internalType": "bool",
          "name": "approved",
          "type": "bool"
        }
      ],
      "name": "setApprovalForAll",
      "outputs": [],
      "stateMutability": "nonpayable",
      "type": "function"
    },
    {
      "inputs": [
        {
          "internalType": "bytes4",
          "name": "interfaceId",
          "type": "bytes4"
        }
      ],
      "name": "supportsInterface",
      "outputs": [
        {
          "internalType": "bool",
          "name": "",
          "type": "bool"
        }
      ],
      "stateMutability": "view",
      "type": "function",
      "constant": true
    },
    {
      "inputs": [],
      "name": "symbol",
      "outputs": [
        {
          "internalType": "string",
          "name": "",
          "type": "string"
        }
      ],
      "stateMutability": "view",
      "type": "function",
      "constant": true
    },
    {
      "inputs": [
        {
          "internalType": "uint256",
          "name": "index",
          "type": "uint256"
        }
      ],
      "name": "tokenByIndex",
      "outputs": [
        {
          "internalType": "uint256",
          "name": "",
          "type": "uint256"
        }
      ],
      "stateMutability": "view",
      "type": "function",
      "constant": true
    },
    {
      "inputs": [],
      "name": "tokenCount",
      "outputs": [
        {
          "internalType": "uint256",
          "name": "",
          "type": "uint256"
        }
      ],
      "stateMutability": "view",
      "type": "function",
      "constant": true
    },
    {
      "inputs": [
        {
          "internalType": "address",
          "name": "owner",
          "type": "address"
        },
        {
          "internalType": "uint256",
          "name": "index",
          "type": "uint256"
        }
      ],
      "name": "tokenOfOwnerByIndex",
      "outputs": [
        {
          "internalType": "uint256",
          "name": "",
          "type": "uint256"
        }
      ],
      "stateMutability": "view",
      "type": "function",
      "constant": true
    },
    {
      "inputs": [
        {
          "internalType": "uint256",
          "name": "tokenId",
          "type": "uint256"
        }
      ],
      "name": "tokenURI",
      "outputs": [
        {
          "internalType": "string",
          "name": "",
          "type": "string"
        }
      ],
      "stateMutability": "view",
      "type": "function",
      "constant": true
    },
    {
      "inputs": [
        {
          "internalType": "uint256",
          "name": "",
          "type": "uint256"
        }
      ],
      "name": "tokens",
      "outputs": [
        {
          "internalType": "uint256",
          "name": "id",
          "type": "uint256"
        },
        {
          "internalType": "string",
          "name": "hash",
          "type": "string"
        },
        {
          "internalType": "string",
          "name": "title",
          "type": "string"
        },
        {
          "internalType": "string",
          "name": "genre",
          "type": "string"
        },
        {
          "internalType": "uint256",
          "name": "created",
          "type": "uint256"
        },
        {
          "internalType": "string",
          "name": "album",
          "type": "string"
        },
        {
          "internalType": "string",
          "name": "coverURI",
          "type": "string"
        },
        {
          "internalType": "address",
          "name": "creator",
          "type": "address"
        }
      ],
      "stateMutability": "view",
      "type": "function",
      "constant": true
    },
    {
      "inputs": [],
      "name": "totalSupply",
      "outputs": [
        {
          "internalType": "uint256",
          "name": "",
          "type": "uint256"
        }
      ],
      "stateMutability": "view",
      "type": "function",
      "constant": true
    },
    {
      "inputs": [
        {
          "internalType": "address",
          "name": "from",
          "type": "address"
        },
        {
          "internalType": "address",
          "name": "to",
          "type": "address"
        },
        {
          "internalType": "uint256",
          "name": "tokenId",
          "type": "uint256"
        }
      ],
      "name": "transferFrom",
      "outputs": [],
      "stateMutability": "nonpayable",
      "type": "function"
    },
    {
      "inputs": [
        {
          "internalType": "uint256",
          "name": "amount",
          "type": "uint256"
        }
      ],
      "name": "setFee",
      "outputs": [],
      "stateMutability": "nonpayable",
      "type": "function"
    },
    {
      "inputs": [
        {
          "internalType": "string",
          "name": "_hash",
          "type": "string"
        },
        {
          "internalType": "string",
          "name": "_genre",
          "type": "string"
        },
        {
          "internalType": "string",
          "name": "_album",
          "type": "string"
        },
        {
          "internalType": "string",
          "name": "_title",
          "type": "string"
        },
        {
          "internalType": "string",
          "name": "coverURI",
          "type": "string"
        }
      ],
      "name": "upload",
      "outputs": [],
      "stateMutability": "payable",
      "type": "function",
      "payable": true
    },
    {
      "inputs": [
        {
          "internalType": "uint256",
          "name": "tokenId",
          "type": "uint256"
        },
        {
          "internalType": "string",
          "name": "_URI",
          "type": "string"
        }
      ],
      "name": "setCover",
      "outputs": [],
      "stateMutability": "nonpayable",
      "type": "function"
    }
  ],
  "bytecode": "0x60806040526000600a5567016345785d8a0000600e553480156200002257600080fd5b5060405162003e8138038062003e8183398181016040528101906200004891906200028b565b6040518060400160405280600681526020017f43524331343100000000000000000000000000000000000000000000000000008152506040518060400160405280601081526020017f43727970746f466f6e74204d75736963000000000000000000000000000000008152508160009080519060200190620000cc92919062000171565b508060019080519060200190620000e592919062000171565b50505033600f60006101000a81548173ffffffffffffffffffffffffffffffffffffffff021916908373ffffffffffffffffffffffffffffffffffffffff16021790555080600c60006101000a81548173ffffffffffffffffffffffffffffffffffffffff021916908373ffffffffffffffffffffffffffffffffffffffff1602179055505062000322565b8280546200017f90620002ec565b90600052602060002090601f016020900481019282620001a35760008555620001ef565b82601f10620001be57805160ff1916838001178555620001ef565b82800160010185558215620001ef579182015b82811115620001ee578251825591602001919060010190620001d1565b5b509050620001fe919062000202565b5090565b5b808211156200021d57600081600090555060010162000203565b5090565b600080fd5b600073ffffffffffffffffffffffffffffffffffffffff82169050919050565b6000620002538262000226565b9050919050565b620002658162000246565b81146200027157600080fd5b50565b60008151905062000285816200025a565b92915050565b600060208284031215620002a457620002a362000221565b5b6000620002b48482850162000274565b91505092915050565b7f4e487b7100000000000000000000000000000000000000000000000000000000600052602260045260246000fd5b600060028204905060018216806200030557607f821691505b602082108114156200031c576200031b620002bd565b5b50919050565b613b4f80620003326000396000f3fe6080604052600436106101355760003560e01c80636352211e116100ab5780639f181b5e1161006f5780639f181b5e14610456578063a22cb46514610481578063b88d4fde146104aa578063c87b56dd146104d3578063d28d885214610510578063e985e9c51461053b57610135565b80636352211e1461035f57806369fe0e2d1461039c57806370a08231146103c557806390e0e90e1461040257806395d89b411461042b57610135565b806323b872dd116100fd57806323b872dd146102335780632f745c591461025c57806342842e0e146102995780634f64b2be146102c25780634f6ccce7146103065780635880c5981461034357610135565b806301ffc9a71461013a57806306fdde0314610177578063081812fc146101a2578063095ea7b3146101df57806318160ddd14610208575b600080fd5b34801561014657600080fd5b50610161600480360381019061015c91906126da565b610578565b60405161016e9190612722565b60405180910390f35b34801561018357600080fd5b5061018c6105f2565b60405161019991906127d6565b60405180910390f35b3480156101ae57600080fd5b506101c960048036038101906101c4919061282e565b610684565b6040516101d6919061289c565b60405180910390f35b3480156101eb57600080fd5b50610206600480360381019061020191906128e3565b610709565b005b34801561021457600080fd5b5061021d610821565b60405161022a9190612932565b60405180910390f35b34801561023f57600080fd5b5061025a6004803603810190610255919061294d565b61082e565b005b34801561026857600080fd5b50610283600480360381019061027e91906128e3565b61088e565b6040516102909190612932565b60405180910390f35b3480156102a557600080fd5b506102c060048036038101906102bb919061294d565b610933565b005b3480156102ce57600080fd5b506102e960048036038101906102e4919061282e565b610953565b6040516102fd9897969594939291906129a0565b60405180910390f35b34801561031257600080fd5b5061032d6004803603810190610328919061282e565b610c63565b60405161033a9190612932565b60405180910390f35b61035d60048036038101906103589190612b76565b610cd4565b005b34801561036b57600080fd5b506103866004803603810190610381919061282e565b610f63565b604051610393919061289c565b60405180910390f35b3480156103a857600080fd5b506103c360048036038101906103be919061282e565b611015565b005b3480156103d157600080fd5b506103ec60048036038101906103e79190612c7d565b611079565b6040516103f99190612932565b60405180910390f35b34801561040e57600080fd5b5061042960048036038101906104249190612caa565b611131565b005b34801561043757600080fd5b506104406111fd565b60405161044d91906127d6565b60405180910390f35b34801561046257600080fd5b5061046b61128f565b6040516104789190612932565b60405180910390f35b34801561048d57600080fd5b506104a860048036038101906104a39190612d32565b611295565b005b3480156104b657600080fd5b506104d160048036038101906104cc9190612e13565b6112ab565b005b3480156104df57600080fd5b506104fa60048036038101906104f5919061282e565b61130d565b60405161050791906127d6565b60405180910390f35b34801561051c57600080fd5b506105256113b4565b60405161053291906127d6565b60405180910390f35b34801561054757600080fd5b50610562600480360381019061055d9190612e96565b611442565b60405161056f9190612722565b60405180910390f35b60007f780e9d63000000000000000000000000000000000000000000000000000000007bffffffffffffffffffffffffffffffffffffffffffffffffffffffff1916827bffffffffffffffffffffffffffffffffffffffffffffffffffffffff191614806105eb57506105ea826114d6565b5b9050919050565b60606000805461060190612f05565b80601f016020809104026020016040519081016040528092919081815260200182805461062d90612f05565b801561067a5780601f1061064f5761010080835404028352916020019161067a565b820191906000526020600020905b81548152906001019060200180831161065d57829003601f168201915b5050505050905090565b600061068f826115b8565b6106ce576040517f08c379a00000000000000000000000000000000000000000000000000000000081526004016106c590612fa9565b60405180910390fd5b6004600083815260200190815260200160002060009054906101000a900473ffffffffffffffffffffffffffffffffffffffff169050919050565b600061071482610f63565b90508073ffffffffffffffffffffffffffffffffffffffff168373ffffffffffffffffffffffffffffffffffffffff161415610785576040517f08c379a000000000000000000000000000000000000000000000000000000000815260040161077c9061303b565b60405180910390fd5b8073ffffffffffffffffffffffffffffffffffffffff166107a4611624565b73ffffffffffffffffffffffffffffffffffffffff1614806107d357506107d2816107cd611624565b611442565b5b610812576040517f08c379a0000000000000000000000000000000000000000000000000000000008152600401610809906130cd565b60405180910390fd5b61081c838361162c565b505050565b6000600880549050905090565b61083f610839611624565b826116e5565b61087e576040517f08c379a00000000000000000000000000000000000000000000000000000000081526004016108759061315f565b60405180910390fd5b6108898383836117c3565b505050565b600061089983611079565b82106108da576040517f08c379a00000000000000000000000000000000000000000000000000000000081526004016108d1906131f1565b60405180910390fd5b600660008473ffffffffffffffffffffffffffffffffffffffff1673ffffffffffffffffffffffffffffffffffffffff168152602001908152602001600020600083815260200190815260200160002054905092915050565b61094e838383604051806020016040528060008152506112ab565b505050565b600d60205280600052604060002060009150905080600001549080600101805461097c90612f05565b80601f01602080910402602001604051908101604052809291908181526020018280546109a890612f05565b80156109f55780601f106109ca576101008083540402835291602001916109f5565b820191906000526020600020905b8154815290600101906020018083116109d857829003601f168201915b505050505090806002018054610a0a90612f05565b80601f0160208091040260200160405190810160405280929190818152602001828054610a3690612f05565b8015610a835780601f10610a5857610100808354040283529160200191610a83565b820191906000526020600020905b815481529060010190602001808311610a6657829003601f168201915b505050505090806003018054610a9890612f05565b80601f0160208091040260200160405190810160405280929190818152602001828054610ac490612f05565b8015610b115780601f10610ae657610100808354040283529160200191610b11565b820191906000526020600020905b815481529060010190602001808311610af457829003601f168201915b505050505090806004015490806005018054610b2c90612f05565b80601f0160208091040260200160405190810160405280929190818152602001828054610b5890612f05565b8015610ba55780601f10610b7a57610100808354040283529160200191610ba5565b820191906000526020600020905b815481529060010190602001808311610b8857829003601f168201915b505050505090806006018054610bba90612f05565b80601f0160208091040260200160405190810160405280929190818152602001828054610be690612f05565b8015610c335780601f10610c0857610100808354040283529160200191610c33565b820191906000526020600020905b815481529060010190602001808311610c1657829003601f168201915b5050505050908060070160009054906101000a900473ffffffffffffffffffffffffffffffffffffffff16905088565b6000610c6d610821565b8210610cae576040517f08c379a0000000000000000000000000000000000000000000000000000000008152600401610ca590613283565b60405180910390fd5b60088281548110610cc257610cc16132a3565b5b90600052602060002001549050919050565b6000855111610ce257600080fd5b6000825111610cf057600080fd5b600073ffffffffffffffffffffffffffffffffffffffff163373ffffffffffffffffffffffffffffffffffffffff161415610d2a57600080fd5b600e54341015610d3957600080fd5b604051806101000160405280600a5481526020018681526020018381526020018581526020014281526020018481526020018281526020013373ffffffffffffffffffffffffffffffffffffffff16815250600d6000600a548152602001908152602001600020600082015181600001556020820151816001019080519060200190610dc69291906125cb565b506040820151816002019080519060200190610de39291906125cb565b506060820151816003019080519060200190610e009291906125cb565b506080820151816004015560a0820151816005019080519060200190610e279291906125cb565b5060c0820151816006019080519060200190610e449291906125cb565b5060e08201518160070160006101000a81548173ffffffffffffffffffffffffffffffffffffffff021916908373ffffffffffffffffffffffffffffffffffffffff160217905550905050610e9b33600a54611a1f565b600a6000815480929190610eae90613301565b9190505550600c60009054906101000a900473ffffffffffffffffffffffffffffffffffffffff1673ffffffffffffffffffffffffffffffffffffffff166108fc600e549081150290604051600060405180830381858888f19350505050610f1557600080fd5b7f33f79a9119f95e67c4045a802ad3b048878abf958ee4eeb9c3b85184a8fdb88f600a5486848742888733604051610f549897969594939291906129a0565b60405180910390a15050505050565b6000806002600084815260200190815260200160002060009054906101000a900473ffffffffffffffffffffffffffffffffffffffff169050600073ffffffffffffffffffffffffffffffffffffffff168173ffffffffffffffffffffffffffffffffffffffff16141561100c576040517f08c379a0000000000000000000000000000000000000000000000000000000008152600401611003906133bc565b60405180910390fd5b80915050919050565b600f60009054906101000a900473ffffffffffffffffffffffffffffffffffffffff1673ffffffffffffffffffffffffffffffffffffffff163373ffffffffffffffffffffffffffffffffffffffff161461106f57600080fd5b80600e8190555050565b60008073ffffffffffffffffffffffffffffffffffffffff168273ffffffffffffffffffffffffffffffffffffffff1614156110ea576040517f08c379a00000000000000000000000000000000000000000000000000000000081526004016110e19061344e565b60405180910390fd5b600360008373ffffffffffffffffffffffffffffffffffffffff1673ffffffffffffffffffffffffffffffffffffffff168152602001908152602001600020549050919050565b3373ffffffffffffffffffffffffffffffffffffffff16600d600084815260200190815260200160002060070160009054906101000a900473ffffffffffffffffffffffffffffffffffffffff1673ffffffffffffffffffffffffffffffffffffffff161461119f57600080fd5b6000600d600084815260200190815260200160002060060180546111c290612f05565b9050146111ce57600080fd5b80600d600084815260200190815260200160002060060190805190602001906111f89291906125cb565b505050565b60606001805461120c90612f05565b80601f016020809104026020016040519081016040528092919081815260200182805461123890612f05565b80156112855780601f1061125a57610100808354040283529160200191611285565b820191906000526020600020905b81548152906001019060200180831161126857829003601f168201915b5050505050905090565b600a5481565b6112a76112a0611624565b8383611a3d565b5050565b6112bc6112b6611624565b836116e5565b6112fb576040517f08c379a00000000000000000000000000000000000000000000000000000000081526004016112f29061315f565b60405180910390fd5b61130784848484611baa565b50505050565b6060611318826115b8565b611357576040517f08c379a000000000000000000000000000000000000000000000000000000000815260040161134e906134e0565b60405180910390fd5b6000611361611c06565b9050600081511161138157604051806020016040528060008152506113ac565b8061138b84611c1d565b60405160200161139c92919061353c565b6040516020818303038152906040525b915050919050565b600b80546113c190612f05565b80601f01602080910402602001604051908101604052809291908181526020018280546113ed90612f05565b801561143a5780601f1061140f5761010080835404028352916020019161143a565b820191906000526020600020905b81548152906001019060200180831161141d57829003601f168201915b505050505081565b6000600560008473ffffffffffffffffffffffffffffffffffffffff1673ffffffffffffffffffffffffffffffffffffffff16815260200190815260200160002060008373ffffffffffffffffffffffffffffffffffffffff1673ffffffffffffffffffffffffffffffffffffffff16815260200190815260200160002060009054906101000a900460ff16905092915050565b60007f80ac58cd000000000000000000000000000000000000000000000000000000007bffffffffffffffffffffffffffffffffffffffffffffffffffffffff1916827bffffffffffffffffffffffffffffffffffffffffffffffffffffffff191614806115a157507f5b5e139f000000000000000000000000000000000000000000000000000000007bffffffffffffffffffffffffffffffffffffffffffffffffffffffff1916827bffffffffffffffffffffffffffffffffffffffffffffffffffffffff1916145b806115b157506115b082611d7e565b5b9050919050565b60008073ffffffffffffffffffffffffffffffffffffffff166002600084815260200190815260200160002060009054906101000a900473ffffffffffffffffffffffffffffffffffffffff1673ffffffffffffffffffffffffffffffffffffffff1614159050919050565b600033905090565b816004600083815260200190815260200160002060006101000a81548173ffffffffffffffffffffffffffffffffffffffff021916908373ffffffffffffffffffffffffffffffffffffffff160217905550808273ffffffffffffffffffffffffffffffffffffffff1661169f83610f63565b73ffffffffffffffffffffffffffffffffffffffff167f8c5be1e5ebec7d5bd14f71427d1e84f3dd0314c0f7b2291e5b200ac8c7c3b92560405160405180910390a45050565b60006116f0826115b8565b61172f576040517f08c379a0000000000000000000000000000000000000000000000000000000008152600401611726906135d2565b60405180910390fd5b600061173a83610f63565b90508073ffffffffffffffffffffffffffffffffffffffff168473ffffffffffffffffffffffffffffffffffffffff1614806117a957508373ffffffffffffffffffffffffffffffffffffffff1661179184610684565b73ffffffffffffffffffffffffffffffffffffffff16145b806117ba57506117b98185611442565b5b91505092915050565b8273ffffffffffffffffffffffffffffffffffffffff166117e382610f63565b73ffffffffffffffffffffffffffffffffffffffff1614611839576040517f08c379a000000000000000000000000000000000000000000000000000000000815260040161183090613664565b60405180910390fd5b600073ffffffffffffffffffffffffffffffffffffffff168273ffffffffffffffffffffffffffffffffffffffff1614156118a9576040517f08c379a00000000000000000000000000000000000000000000000000000000081526004016118a0906136f6565b60405180910390fd5b6118b4838383611de8565b6118bf60008261162c565b6001600360008573ffffffffffffffffffffffffffffffffffffffff1673ffffffffffffffffffffffffffffffffffffffff168152602001908152602001600020600082825461190f9190613716565b925050819055506001600360008473ffffffffffffffffffffffffffffffffffffffff1673ffffffffffffffffffffffffffffffffffffffff1681526020019081526020016000206000828254611966919061374a565b92505081905550816002600083815260200190815260200160002060006101000a81548173ffffffffffffffffffffffffffffffffffffffff021916908373ffffffffffffffffffffffffffffffffffffffff160217905550808273ffffffffffffffffffffffffffffffffffffffff168473ffffffffffffffffffffffffffffffffffffffff167fddf252ad1be2c89b69c2b068fc378daa952ba7f163c4a11628f55a4df523b3ef60405160405180910390a4505050565b611a39828260405180602001604052806000815250611efc565b5050565b8173ffffffffffffffffffffffffffffffffffffffff168373ffffffffffffffffffffffffffffffffffffffff161415611aac576040517f08c379a0000000000000000000000000000000000000000000000000000000008152600401611aa3906137ec565b60405180910390fd5b80600560008573ffffffffffffffffffffffffffffffffffffffff1673ffffffffffffffffffffffffffffffffffffffff16815260200190815260200160002060008473ffffffffffffffffffffffffffffffffffffffff1673ffffffffffffffffffffffffffffffffffffffff16815260200190815260200160002060006101000a81548160ff0219169083151502179055508173ffffffffffffffffffffffffffffffffffffffff168373ffffffffffffffffffffffffffffffffffffffff167f17307eab39ab6107e8899845ad3d59bd9653f200f220920489ca2b5937696c3183604051611b9d9190612722565b60405180910390a3505050565b611bb58484846117c3565b611bc184848484611f57565b611c00576040517f08c379a0000000000000000000000000000000000000000000000000000000008152600401611bf79061387e565b60405180910390fd5b50505050565b606060405180602001604052806000815250905090565b60606000821415611c65576040518060400160405280600181526020017f30000000000000000000000000000000000000000000000000000000000000008152509050611d79565b600082905060005b60008214611c97578080611c8090613301565b915050600a82611c9091906138cd565b9150611c6d565b60008167ffffffffffffffff811115611cb357611cb2612a4b565b5b6040519080825280601f01601f191660200182016040528015611ce55781602001600182028036833780820191505090505b5090505b60008514611d7257600182611cfe9190613716565b9150600a85611d0d91906138fe565b6030611d19919061374a565b60f81b818381518110611d2f57611d2e6132a3565b5b60200101907effffffffffffffffffffffffffffffffffffffffffffffffffffffffffffff1916908160001a905350600a85611d6b91906138cd565b9450611ce9565b8093505050505b919050565b60007f01ffc9a7000000000000000000000000000000000000000000000000000000007bffffffffffffffffffffffffffffffffffffffffffffffffffffffff1916827bffffffffffffffffffffffffffffffffffffffffffffffffffffffff1916149050919050565b611df38383836120df565b600073ffffffffffffffffffffffffffffffffffffffff168373ffffffffffffffffffffffffffffffffffffffff161415611e3657611e31816120e4565b611e75565b8173ffffffffffffffffffffffffffffffffffffffff168373ffffffffffffffffffffffffffffffffffffffff1614611e7457611e73838261212d565b5b5b600073ffffffffffffffffffffffffffffffffffffffff168273ffffffffffffffffffffffffffffffffffffffff161415611eb857611eb38161229a565b611ef7565b8273ffffffffffffffffffffffffffffffffffffffff168273ffffffffffffffffffffffffffffffffffffffff1614611ef657611ef5828261236b565b5b5b505050565b611f0683836123ea565b611f136000848484611f57565b611f52576040517f08c379a0000000000000000000000000000000000000000000000000000000008152600401611f499061387e565b60405180910390fd5b505050565b6000611f788473ffffffffffffffffffffffffffffffffffffffff166125b8565b156120d2578373ffffffffffffffffffffffffffffffffffffffff1663150b7a02611fa1611624565b8786866040518563ffffffff1660e01b8152600401611fc39493929190613984565b6020604051808303816000875af1925050508015611fff57506040513d601f19601f82011682018060405250810190611ffc91906139e5565b60015b612082573d806000811461202f576040519150601f19603f3d011682016040523d82523d6000602084013e612034565b606091505b5060008151141561207a576040517f08c379a00000000000000000000000000000000000000000000000000000000081526004016120719061387e565b60405180910390fd5b805181602001fd5b63150b7a0260e01b7bffffffffffffffffffffffffffffffffffffffffffffffffffffffff1916817bffffffffffffffffffffffffffffffffffffffffffffffffffffffff1916149150506120d7565b600190505b949350505050565b505050565b6008805490506009600083815260200190815260200160002081905550600881908060018154018082558091505060019003906000526020600020016000909190919091505550565b6000600161213a84611079565b6121449190613716565b9050600060076000848152602001908152602001600020549050818114612229576000600660008673ffffffffffffffffffffffffffffffffffffffff1673ffffffffffffffffffffffffffffffffffffffff168152602001908152602001600020600084815260200190815260200160002054905080600660008773ffffffffffffffffffffffffffffffffffffffff1673ffffffffffffffffffffffffffffffffffffffff168152602001908152602001600020600084815260200190815260200160002081905550816007600083815260200190815260200160002081905550505b6007600084815260200190815260200160002060009055600660008573ffffffffffffffffffffffffffffffffffffffff1673ffffffffffffffffffffffffffffffffffffffff16815260200190815260200160002060008381526020019081526020016000206000905550505050565b600060016008805490506122ae9190613716565b90506000600960008481526020019081526020016000205490506000600883815481106122de576122dd6132a3565b5b906000526020600020015490508060088381548110612300576122ff6132a3565b5b90600052602060002001819055508160096000838152602001908152602001600020819055506009600085815260200190815260200160002060009055600880548061234f5761234e613a12565b5b6001900381819060005260206000200160009055905550505050565b600061237683611079565b905081600660008573ffffffffffffffffffffffffffffffffffffffff1673ffffffffffffffffffffffffffffffffffffffff168152602001908152602001600020600083815260200190815260200160002081905550806007600084815260200190815260200160002081905550505050565b600073ffffffffffffffffffffffffffffffffffffffff168273ffffffffffffffffffffffffffffffffffffffff16141561245a576040517f08c379a000000000000000000000000000000000000000000000000000000000815260040161245190613a8d565b60405180910390fd5b612463816115b8565b156124a3576040517f08c379a000000000000000000000000000000000000000000000000000000000815260040161249a90613af9565b60405180910390fd5b6124af60008383611de8565b6001600360008473ffffffffffffffffffffffffffffffffffffffff1673ffffffffffffffffffffffffffffffffffffffff16815260200190815260200160002060008282546124ff919061374a565b92505081905550816002600083815260200190815260200160002060006101000a81548173ffffffffffffffffffffffffffffffffffffffff021916908373ffffffffffffffffffffffffffffffffffffffff160217905550808273ffffffffffffffffffffffffffffffffffffffff16600073ffffffffffffffffffffffffffffffffffffffff167fddf252ad1be2c89b69c2b068fc378daa952ba7f163c4a11628f55a4df523b3ef60405160405180910390a45050565b600080823b905060008111915050919050565b8280546125d790612f05565b90600052602060002090601f0160209004810192826125f95760008555612640565b82601f1061261257805160ff1916838001178555612640565b82800160010185558215612640579182015b8281111561263f578251825591602001919060010190612624565b5b50905061264d9190612651565b5090565b5b8082111561266a576000816000905550600101612652565b5090565b6000604051905090565b600080fd5b600080fd5b60007fffffffff0000000000000000000000000000000000000000000000000000000082169050919050565b6126b781612682565b81146126c257600080fd5b50565b6000813590506126d4816126ae565b92915050565b6000602082840312156126f0576126ef612678565b5b60006126fe848285016126c5565b91505092915050565b60008115159050919050565b61271c81612707565b82525050565b60006020820190506127376000830184612713565b92915050565b600081519050919050565b600082825260208201905092915050565b60005b8381101561277757808201518184015260208101905061275c565b83811115612786576000848401525b50505050565b6000601f19601f8301169050919050565b60006127a88261273d565b6127b28185612748565b93506127c2818560208601612759565b6127cb8161278c565b840191505092915050565b600060208201905081810360008301526127f0818461279d565b905092915050565b6000819050919050565b61280b816127f8565b811461281657600080fd5b50565b60008135905061282881612802565b92915050565b60006020828403121561284457612843612678565b5b600061285284828501612819565b91505092915050565b600073ffffffffffffffffffffffffffffffffffffffff82169050919050565b60006128868261285b565b9050919050565b6128968161287b565b82525050565b60006020820190506128b1600083018461288d565b92915050565b6128c08161287b565b81146128cb57600080fd5b50565b6000813590506128dd816128b7565b92915050565b600080604083850312156128fa576128f9612678565b5b6000612908858286016128ce565b925050602061291985828601612819565b9150509250929050565b61292c816127f8565b82525050565b60006020820190506129476000830184612923565b92915050565b60008060006060848603121561296657612965612678565b5b6000612974868287016128ce565b9350506020612985868287016128ce565b925050604061299686828701612819565b9150509250925092565b6000610100820190506129b6600083018b612923565b81810360208301526129c8818a61279d565b905081810360408301526129dc818961279d565b905081810360608301526129f0818861279d565b90506129ff6080830187612923565b81810360a0830152612a11818661279d565b905081810360c0830152612a25818561279d565b9050612a3460e083018461288d565b9998505050505050505050565b600080fd5b600080fd5b7f4e487b7100000000000000000000000000000000000000000000000000000000600052604160045260246000fd5b612a838261278c565b810181811067ffffffffffffffff82111715612aa257612aa1612a4b565b5b80604052505050565b6000612ab561266e565b9050612ac18282612a7a565b919050565b600067ffffffffffffffff821115612ae157612ae0612a4b565b5b612aea8261278c565b9050602081019050919050565b82818337600083830152505050565b6000612b19612b1484612ac6565b612aab565b905082815260208101848484011115612b3557612b34612a46565b5b612b40848285612af7565b509392505050565b600082601f830112612b5d57612b5c612a41565b5b8135612b6d848260208601612b06565b91505092915050565b600080600080600060a08688031215612b9257612b91612678565b5b600086013567ffffffffffffffff811115612bb057612baf61267d565b5b612bbc88828901612b48565b955050602086013567ffffffffffffffff811115612bdd57612bdc61267d565b5b612be988828901612b48565b945050604086013567ffffffffffffffff811115612c0a57612c0961267d565b5b612c1688828901612b48565b935050606086013567ffffffffffffffff811115612c3757612c3661267d565b5b612c4388828901612b48565b925050608086013567ffffffffffffffff811115612c6457612c6361267d565b5b612c7088828901612b48565b9150509295509295909350565b600060208284031215612c9357612c92612678565b5b6000612ca1848285016128ce565b91505092915050565b60008060408385031215612cc157612cc0612678565b5b6000612ccf85828601612819565b925050602083013567ffffffffffffffff811115612cf057612cef61267d565b5b612cfc85828601612b48565b9150509250929050565b612d0f81612707565b8114612d1a57600080fd5b50565b600081359050612d2c81612d06565b92915050565b60008060408385031215612d4957612d48612678565b5b6000612d57858286016128ce565b9250506020612d6885828601612d1d565b9150509250929050565b600067ffffffffffffffff821115612d8d57612d8c612a4b565b5b612d968261278c565b9050602081019050919050565b6000612db6612db184612d72565b612aab565b905082815260208101848484011115612dd257612dd1612a46565b5b612ddd848285612af7565b509392505050565b600082601f830112612dfa57612df9612a41565b5b8135612e0a848260208601612da3565b91505092915050565b60008060008060808587031215612e2d57612e2c612678565b5b6000612e3b878288016128ce565b9450506020612e4c878288016128ce565b9350506040612e5d87828801612819565b925050606085013567ffffffffffffffff811115612e7e57612e7d61267d565b5b612e8a87828801612de5565b91505092959194509250565b60008060408385031215612ead57612eac612678565b5b6000612ebb858286016128ce565b9250506020612ecc858286016128ce565b9150509250929050565b7f4e487b7100000000000000000000000000000000000000000000000000000000600052602260045260246000fd5b60006002820490506001821680612f1d57607f821691505b60208210811415612f3157612f30612ed6565b5b50919050565b7f4552433732313a20617070726f76656420717565727920666f72206e6f6e657860008201527f697374656e7420746f6b656e0000000000000000000000000000000000000000602082015250565b6000612f93602c83612748565b9150612f9e82612f37565b604082019050919050565b60006020820190508181036000830152612fc281612f86565b9050919050565b7f4552433732313a20617070726f76616c20746f2063757272656e74206f776e6560008201527f7200000000000000000000000000000000000000000000000000000000000000602082015250565b6000613025602183612748565b915061303082612fc9565b604082019050919050565b6000602082019050818103600083015261305481613018565b9050919050565b7f4552433732313a20617070726f76652063616c6c6572206973206e6f74206f7760008201527f6e6572206e6f7220617070726f76656420666f7220616c6c0000000000000000602082015250565b60006130b7603883612748565b91506130c28261305b565b604082019050919050565b600060208201905081810360008301526130e6816130aa565b9050919050565b7f4552433732313a207472616e736665722063616c6c6572206973206e6f74206f60008201527f776e6572206e6f7220617070726f766564000000000000000000000000000000602082015250565b6000613149603183612748565b9150613154826130ed565b604082019050919050565b600060208201905081810360008301526131788161313c565b9050919050565b7f455243373231456e756d657261626c653a206f776e657220696e646578206f7560008201527f74206f6620626f756e6473000000000000000000000000000000000000000000602082015250565b60006131db602b83612748565b91506131e68261317f565b604082019050919050565b6000602082019050818103600083015261320a816131ce565b9050919050565b7f455243373231456e756d657261626c653a20676c6f62616c20696e646578206f60008201527f7574206f6620626f756e64730000000000000000000000000000000000000000602082015250565b600061326d602c83612748565b915061327882613211565b604082019050919050565b6000602082019050818103600083015261329c81613260565b9050919050565b7f4e487b7100000000000000000000000000000000000000000000000000000000600052603260045260246000fd5b7f4e487b7100000000000000000000000000000000000000000000000000000000600052601160045260246000fd5b600061330c826127f8565b91507fffffffffffffffffffffffffffffffffffffffffffffffffffffffffffffffff82141561333f5761333e6132d2565b5b600182019050919050565b7f4552433732313a206f776e657220717565727920666f72206e6f6e657869737460008201527f656e7420746f6b656e0000000000000000000000000000000000000000000000602082015250565b60006133a6602983612748565b91506133b18261334a565b604082019050919050565b600060208201905081810360008301526133d581613399565b9050919050565b7f4552433732313a2062616c616e636520717565727920666f7220746865207a6560008201527f726f206164647265737300000000000000000000000000000000000000000000602082015250565b6000613438602a83612748565b9150613443826133dc565b604082019050919050565b600060208201905081810360008301526134678161342b565b9050919050565b7f4552433732314d657461646174613a2055524920717565727920666f72206e6f60008201527f6e6578697374656e7420746f6b656e0000000000000000000000000000000000602082015250565b60006134ca602f83612748565b91506134d58261346e565b604082019050919050565b600060208201905081810360008301526134f9816134bd565b9050919050565b600081905092915050565b60006135168261273d565b6135208185613500565b9350613530818560208601612759565b80840191505092915050565b6000613548828561350b565b9150613554828461350b565b91508190509392505050565b7f4552433732313a206f70657261746f7220717565727920666f72206e6f6e657860008201527f697374656e7420746f6b656e0000000000000000000000000000000000000000602082015250565b60006135bc602c83612748565b91506135c782613560565b604082019050919050565b600060208201905081810360008301526135eb816135af565b9050919050565b7f4552433732313a207472616e73666572206f6620746f6b656e2074686174206960008201527f73206e6f74206f776e0000000000000000000000000000000000000000000000602082015250565b600061364e602983612748565b9150613659826135f2565b604082019050919050565b6000602082019050818103600083015261367d81613641565b9050919050565b7f4552433732313a207472616e7366657220746f20746865207a65726f2061646460008201527f7265737300000000000000000000000000000000000000000000000000000000602082015250565b60006136e0602483612748565b91506136eb82613684565b604082019050919050565b6000602082019050818103600083015261370f816136d3565b9050919050565b6000613721826127f8565b915061372c836127f8565b92508282101561373f5761373e6132d2565b5b828203905092915050565b6000613755826127f8565b9150613760836127f8565b9250827fffffffffffffffffffffffffffffffffffffffffffffffffffffffffffffffff03821115613795576137946132d2565b5b828201905092915050565b7f4552433732313a20617070726f766520746f2063616c6c657200000000000000600082015250565b60006137d6601983612748565b91506137e1826137a0565b602082019050919050565b60006020820190508181036000830152613805816137c9565b9050919050565b7f4552433732313a207472616e7366657220746f206e6f6e20455243373231526560008201527f63656976657220696d706c656d656e7465720000000000000000000000000000602082015250565b6000613868603283612748565b91506138738261380c565b604082019050919050565b600060208201905081810360008301526138978161385b565b9050919050565b7f4e487b7100000000000000000000000000000000000000000000000000000000600052601260045260246000fd5b60006138d8826127f8565b91506138e3836127f8565b9250826138f3576138f261389e565b5b828204905092915050565b6000613909826127f8565b9150613914836127f8565b9250826139245761392361389e565b5b828206905092915050565b600081519050919050565b600082825260208201905092915050565b60006139568261392f565b613960818561393a565b9350613970818560208601612759565b6139798161278c565b840191505092915050565b6000608082019050613999600083018761288d565b6139a6602083018661288d565b6139b36040830185612923565b81810360608301526139c5818461394b565b905095945050505050565b6000815190506139df816126ae565b92915050565b6000602082840312156139fb576139fa612678565b5b6000613a09848285016139d0565b91505092915050565b7f4e487b7100000000000000000000000000000000000000000000000000000000600052603160045260246000fd5b7f4552433732313a206d696e7420746f20746865207a65726f2061646472657373600082015250565b6000613a77602083612748565b9150613a8282613a41565b602082019050919050565b60006020820190508181036000830152613aa681613a6a565b9050919050565b7f4552433732313a20746f6b656e20616c7265616479206d696e74656400000000600082015250565b6000613ae3601c83612748565b9150613aee82613aad565b602082019050919050565b60006020820190508181036000830152613b1281613ad6565b905091905056fea2646970667358221220a1eb326ef48b257dd1278b9881cd96df90c2d39ce74d4b205e08a86a827852aa64736f6c634300080b0033",
  "immutableReferences": {},
  "source": "pragma solidity ^0.8.0;\n\nimport \"@openzeppelin/contracts/token/ERC721/extensions/ERC721Enumerable.sol\";\n\ncontract CRC141 is ERC721Enumerable {\n    uint256 public tokenCount = 0;\n    string public _name;\n    address payable cfont;\n    mapping(uint256 => Token) public tokens;\n    uint256 fee = 0.1 ether;\n    address _owner;\n\n    struct Token {\n        uint256 id;\n        string hash;\n        string title;\n        string genre;\n        uint256 created;\n        string album;\n        string coverURI;\n        address creator;\n    }\n\n    event TokenUploaded(\n        uint256 id,\n        string hash,\n        string title,\n        string genre,\n        uint256 created,\n        string album,\n        string coverURI,\n        address creator\n    );\n\n    constructor(address payable _cfont) ERC721(\"CRC141\", \"CryptoFont Music\") {\n        _owner = msg.sender;\n        cfont = _cfont;\n    }\n\n    function setFee(uint256 amount) public {\n        require(address(msg.sender) == _owner);\n        fee = amount;\n    }\n\n    function upload(\n        string memory _hash,\n        string memory _genre,\n        string memory _album,\n        string memory _title,\n        string memory coverURI\n    ) public payable {\n        // Make sure the video hash exists\n        require(bytes(_hash).length > 0);\n        // Make sure video title exists\n        require(bytes(_title).length > 0);\n        // Make sure uploader address exists\n        require(msg.sender != address(0));\n\n        require(msg.value >= fee);\n\n        // Add video to the contract\n        tokens[tokenCount] = Token(\n            tokenCount,\n            _hash,\n            _title,\n            _genre,\n            block.timestamp,\n            _album,\n            coverURI,\n            msg.sender\n        );\n        _safeMint(msg.sender, tokenCount);\n        // Trigger an event\n        tokenCount++;\n        require(cfont.send(fee));\n        emit TokenUploaded(\n            tokenCount,\n            _hash,\n            _title,\n            _genre,\n            block.timestamp,\n            _album,\n            coverURI,\n            msg.sender\n        );\n    }\n\n    function setCover(uint256 tokenId, string memory _URI) public {\n        require(tokens[tokenId].creator == msg.sender);\n        require(bytes(tokens[tokenId].coverURI).length == 0);\n        tokens[tokenId].coverURI = _URI;\n    }\n}\n",
  "sourcePath": "/Users/jarupaksrisuchat/Documents/github/popex/contracts/CRC141.sol",
  "compiler": {
    "name": "solc",
    "version": "0.8.11+commit.d7f03943.Emscripten.clang"
  },
  "schemaVersion": "3.4.3",
  "updatedAt": "2022-01-18T19:45:56.039Z",
  "networkType": "ethereum",
  "devdoc": {
    "kind": "dev",
    "methods": {
      "approve(address,uint256)": {
        "details": "See {IERC721-approve}."
      },
      "balanceOf(address)": {
        "details": "See {IERC721-balanceOf}."
      },
      "getApproved(uint256)": {
        "details": "See {IERC721-getApproved}."
      },
      "isApprovedForAll(address,address)": {
        "details": "See {IERC721-isApprovedForAll}."
      },
      "name()": {
        "details": "See {IERC721Metadata-name}."
      },
      "ownerOf(uint256)": {
        "details": "See {IERC721-ownerOf}."
      },
      "safeTransferFrom(address,address,uint256)": {
        "details": "See {IERC721-safeTransferFrom}."
      },
      "safeTransferFrom(address,address,uint256,bytes)": {
        "details": "See {IERC721-safeTransferFrom}."
      },
      "setApprovalForAll(address,bool)": {
        "details": "See {IERC721-setApprovalForAll}."
      },
      "supportsInterface(bytes4)": {
        "details": "See {IERC165-supportsInterface}."
      },
      "symbol()": {
        "details": "See {IERC721Metadata-symbol}."
      },
      "tokenByIndex(uint256)": {
        "details": "See {IERC721Enumerable-tokenByIndex}."
      },
      "tokenOfOwnerByIndex(address,uint256)": {
        "details": "See {IERC721Enumerable-tokenOfOwnerByIndex}."
      },
      "tokenURI(uint256)": {
        "details": "See {IERC721Metadata-tokenURI}."
      },
      "totalSupply()": {
        "details": "See {IERC721Enumerable-totalSupply}."
      },
      "transferFrom(address,address,uint256)": {
        "details": "See {IERC721-transferFrom}."
      }
    },
    "version": 1
  },
  "userdoc": {
    "kind": "user",
    "methods": {},
    "version": 1
  }
}