{
  "contractName": "Member",
  "abi": [
    {
      "inputs": [
        {
          "internalType": "address payable",
          "name": "_cfont",
          "type": "address"
        }
      ],
      "stateMutability": "nonpayable",
      "type": "constructor"
    },
    {
      "anonymous": false,
      "inputs": [
        {
          "indexed": false,
          "internalType": "string",
          "name": "",
          "type": "string"
        },
        {
          "indexed": false,
          "internalType": "address",
          "name": "",
          "type": "address"
        },
        {
          "indexed": false,
          "internalType": "string",
          "name": "",
          "type": "string"
        }
      ],
      "name": "nameAction",
      "type": "event"
    },
    {
      "inputs": [
        {
          "internalType": "address",
          "name": "",
          "type": "address"
        }
      ],
      "name": "addressToName",
      "outputs": [
        {
          "internalType": "string",
          "name": "",
          "type": "string"
        }
      ],
      "stateMutability": "view",
      "type": "function",
      "constant": true
    },
    {
      "inputs": [],
      "name": "fee",
      "outputs": [
        {
          "internalType": "uint256",
          "name": "",
          "type": "uint256"
        }
      ],
      "stateMutability": "view",
      "type": "function",
      "constant": true
    },
    {
      "inputs": [
        {
          "internalType": "string",
          "name": "",
          "type": "string"
        }
      ],
      "name": "nameToAddress",
      "outputs": [
        {
          "internalType": "address",
          "name": "",
          "type": "address"
        }
      ],
      "stateMutability": "view",
      "type": "function",
      "constant": true
    },
    {
      "inputs": [
        {
          "internalType": "uint256",
          "name": "_fee",
          "type": "uint256"
        }
      ],
      "name": "setFee",
      "outputs": [],
      "stateMutability": "nonpayable",
      "type": "function"
    },
    {
      "inputs": [
        {
          "internalType": "address",
          "name": "_address",
          "type": "address"
        }
      ],
      "name": "getName",
      "outputs": [
        {
          "internalType": "string",
          "name": "",
          "type": "string"
        }
      ],
      "stateMutability": "view",
      "type": "function",
      "constant": true
    },
    {
      "inputs": [
        {
          "internalType": "string",
          "name": "_name",
          "type": "string"
        }
      ],
      "name": "getOwner",
      "outputs": [
        {
          "internalType": "address",
          "name": "",
          "type": "address"
        }
      ],
      "stateMutability": "view",
      "type": "function",
      "constant": true
    },
    {
      "inputs": [
        {
          "internalType": "string",
          "name": "_name",
          "type": "string"
        }
      ],
      "name": "setName",
      "outputs": [],
      "stateMutability": "payable",
      "type": "function",
      "payable": true
    },
    {
      "inputs": [],
      "name": "removeName",
      "outputs": [],
      "stateMutability": "nonpayable",
      "type": "function"
    }
  ],
  "bytecode": "0x608060405266b1a2bc2ec5000060045534801561001b57600080fd5b50604051610fa8380380610fa8833981810160405281019061003d9190610128565b33600260006101000a81548173ffffffffffffffffffffffffffffffffffffffff021916908373ffffffffffffffffffffffffffffffffffffffff16021790555080600360006101000a81548173ffffffffffffffffffffffffffffffffffffffff021916908373ffffffffffffffffffffffffffffffffffffffff16021790555050610155565b600080fd5b600073ffffffffffffffffffffffffffffffffffffffff82169050919050565b60006100f5826100ca565b9050919050565b610105816100ea565b811461011057600080fd5b50565b600081519050610122816100fc565b92915050565b60006020828403121561013e5761013d6100c5565b5b600061014c84828501610113565b91505092915050565b610e44806101646000396000f3fe60806040526004361061007b5760003560e01c8063c47f00271161004e578063c47f002714610160578063ddca3f431461017c578063e2a04b62146101a7578063fbee436d146101e45761007b565b806308d88aad146100805780634aaf4a12146100bd5780635fd4b08a146100fa57806369fe0e2d14610137575b600080fd5b34801561008c57600080fd5b506100a760048036038101906100a291906109eb565b6101fb565b6040516100b49190610a75565b60405180910390f35b3480156100c957600080fd5b506100e460048036038101906100df91906109eb565b610244565b6040516100f19190610a75565b60405180910390f35b34801561010657600080fd5b50610121600480360381019061011c9190610abc565b61028b565b60405161012e9190610b71565b60405180910390f35b34801561014357600080fd5b5061015e60048036038101906101599190610bc9565b61035c565b005b61017a600480360381019061017591906109eb565b6103c0565b005b34801561018857600080fd5b50610191610648565b60405161019e9190610c05565b60405180910390f35b3480156101b357600080fd5b506101ce60048036038101906101c99190610abc565b61064e565b6040516101db9190610b71565b60405180910390f35b3480156101f057600080fd5b506101f96106ee565b005b6000818051602081018201805184825260208301602085012081835280955050505050506000915054906101000a900473ffffffffffffffffffffffffffffffffffffffff1681565b600080826040516102559190610c5c565b908152602001604051809103902060009054906101000a900473ffffffffffffffffffffffffffffffffffffffff169050919050565b6060600160008373ffffffffffffffffffffffffffffffffffffffff1673ffffffffffffffffffffffffffffffffffffffff16815260200190815260200160002080546102d790610ca2565b80601f016020809104026020016040519081016040528092919081815260200182805461030390610ca2565b80156103505780601f1061032557610100808354040283529160200191610350565b820191906000526020600020905b81548152906001019060200180831161033357829003601f168201915b50505050509050919050565b600260009054906101000a900473ffffffffffffffffffffffffffffffffffffffff1673ffffffffffffffffffffffffffffffffffffffff163373ffffffffffffffffffffffffffffffffffffffff16146103b657600080fd5b8060048190555050565b600c815111156103cf57600080fd5b600073ffffffffffffffffffffffffffffffffffffffff166000826040516103f79190610c5c565b908152602001604051809103902060009054906101000a900473ffffffffffffffffffffffffffffffffffffffff1673ffffffffffffffffffffffffffffffffffffffff161461044657600080fd5b60045434101561045557600080fd5b600080600160003373ffffffffffffffffffffffffffffffffffffffff1673ffffffffffffffffffffffffffffffffffffffff1681526020019081526020016000206040516104a49190610d68565b908152602001604051809103902060006101000a81548173ffffffffffffffffffffffffffffffffffffffff021916908373ffffffffffffffffffffffffffffffffffffffff160217905550336000826040516105019190610c5c565b908152602001604051809103902060006101000a81548173ffffffffffffffffffffffffffffffffffffffff021916908373ffffffffffffffffffffffffffffffffffffffff16021790555080600160003373ffffffffffffffffffffffffffffffffffffffff1673ffffffffffffffffffffffffffffffffffffffff16815260200190815260200160002090805190602001906105a09291906107ee565b50600360009054906101000a900473ffffffffffffffffffffffffffffffffffffffff1673ffffffffffffffffffffffffffffffffffffffff166108fc6004549081150290604051600060405180830381858888f1935050505015801561060b573d6000803e3d6000fd5b507f26e34e70e02da11043f26384e969163acd5a08fc5792e371286110e85767d393338260405161063d929190610dcb565b60405180910390a150565b60045481565b6001602052806000526040600020600091509050805461066d90610ca2565b80601f016020809104026020016040519081016040528092919081815260200182805461069990610ca2565b80156106e65780601f106106bb576101008083540402835291602001916106e6565b820191906000526020600020905b8154815290600101906020018083116106c957829003601f168201915b505050505081565b600080600160003373ffffffffffffffffffffffffffffffffffffffff1673ffffffffffffffffffffffffffffffffffffffff16815260200190815260200160002060405161073d9190610d68565b908152602001604051809103902060006101000a81548173ffffffffffffffffffffffffffffffffffffffff021916908373ffffffffffffffffffffffffffffffffffffffff16021790555060405180602001604052806000815250600160003373ffffffffffffffffffffffffffffffffffffffff1673ffffffffffffffffffffffffffffffffffffffff16815260200190815260200160002090805190602001906107eb9291906107ee565b50565b8280546107fa90610ca2565b90600052602060002090601f01602090048101928261081c5760008555610863565b82601f1061083557805160ff1916838001178555610863565b82800160010185558215610863579182015b82811115610862578251825591602001919060010190610847565b5b5090506108709190610874565b5090565b5b8082111561088d576000816000905550600101610875565b5090565b6000604051905090565b600080fd5b600080fd5b600080fd5b600080fd5b6000601f19601f8301169050919050565b7f4e487b7100000000000000000000000000000000000000000000000000000000600052604160045260246000fd5b6108f8826108af565b810181811067ffffffffffffffff82111715610917576109166108c0565b5b80604052505050565b600061092a610891565b905061093682826108ef565b919050565b600067ffffffffffffffff821115610956576109556108c0565b5b61095f826108af565b9050602081019050919050565b82818337600083830152505050565b600061098e6109898461093b565b610920565b9050828152602081018484840111156109aa576109a96108aa565b5b6109b584828561096c565b509392505050565b600082601f8301126109d2576109d16108a5565b5b81356109e284826020860161097b565b91505092915050565b600060208284031215610a0157610a0061089b565b5b600082013567ffffffffffffffff811115610a1f57610a1e6108a0565b5b610a2b848285016109bd565b91505092915050565b600073ffffffffffffffffffffffffffffffffffffffff82169050919050565b6000610a5f82610a34565b9050919050565b610a6f81610a54565b82525050565b6000602082019050610a8a6000830184610a66565b92915050565b610a9981610a54565b8114610aa457600080fd5b50565b600081359050610ab681610a90565b92915050565b600060208284031215610ad257610ad161089b565b5b6000610ae084828501610aa7565b91505092915050565b600081519050919050565b600082825260208201905092915050565b60005b83811015610b23578082015181840152602081019050610b08565b83811115610b32576000848401525b50505050565b6000610b4382610ae9565b610b4d8185610af4565b9350610b5d818560208601610b05565b610b66816108af565b840191505092915050565b60006020820190508181036000830152610b8b8184610b38565b905092915050565b6000819050919050565b610ba681610b93565b8114610bb157600080fd5b50565b600081359050610bc381610b9d565b92915050565b600060208284031215610bdf57610bde61089b565b5b6000610bed84828501610bb4565b91505092915050565b610bff81610b93565b82525050565b6000602082019050610c1a6000830184610bf6565b92915050565b600081905092915050565b6000610c3682610ae9565b610c408185610c20565b9350610c50818560208601610b05565b80840191505092915050565b6000610c688284610c2b565b915081905092915050565b7f4e487b7100000000000000000000000000000000000000000000000000000000600052602260045260246000fd5b60006002820490506001821680610cba57607f821691505b60208210811415610cce57610ccd610c73565b5b50919050565b60008190508160005260206000209050919050565b60008154610cf681610ca2565b610d008186610c20565b94506001821660008114610d1b5760018114610d2c57610d5f565b60ff19831686528186019350610d5f565b610d3585610cd4565b60005b83811015610d5757815481890152600182019150602081019050610d38565b838801955050505b50505092915050565b6000610d748284610ce9565b915081905092915050565b7f7365744e616d6500000000000000000000000000000000000000000000000000600082015250565b6000610db5600783610af4565b9150610dc082610d7f565b602082019050919050565b60006060820190508181036000830152610de481610da8565b9050610df36020830185610a66565b8181036040830152610e058184610b38565b9050939250505056fea26469706673582212204464ec20ff3aacacd20383b4eb7d316dd153c01dabccdc2d84959826ee828d9564736f6c634300080b0033",
  "immutableReferences": {},
  "source": "pragma solidity ^0.8.0;\n\ncontract Member {\n\n    mapping(string => address) public nameToAddress;\n    mapping(address => string) public addressToName;\n    address owner;\n    address payable cfont;\n    uint256 public fee = 0.05 ether;\n\n    event nameAction(string, address, string);\n\n    constructor(address payable _cfont){\n        owner = msg.sender;\n        cfont = _cfont;\n    }\n\n    function setFee(uint256 _fee) public{\n        require(msg.sender == owner);\n        fee = _fee;\n    }\n    \n    function getName(address _address) public view returns(string memory){\n        return addressToName[_address];\n    }\n\n    function getOwner(string memory _name) public view returns(address){\n        return nameToAddress[_name];\n    }\n\n    function setName(string memory _name)payable public{\n        require(bytes(_name).length <= 12);\n        require(nameToAddress[_name] == address(0));\n        require(msg.value >= fee);\n        \n        //remove old name\n        nameToAddress[addressToName[msg.sender]] = address(0);\n        //allocate new name\n        nameToAddress[_name] = msg.sender;\n        addressToName[msg.sender] = _name;\n\n        cfont.transfer(fee);\n        emit nameAction(\"setName\", msg.sender, _name);\n    }\n\n    function removeName() public{\n        nameToAddress[addressToName[msg.sender]] = address(0);\n        addressToName[msg.sender] = \"\";\n    }\n}",
  "sourcePath": "/Users/jarupaksrisuchat/Documents/github/popex/contracts/member.sol",
  "compiler": {
    "name": "solc",
    "version": "0.8.11+commit.d7f03943.Emscripten.clang"
  },
  "schemaVersion": "3.4.3",
  "updatedAt": "2022-01-18T19:45:56.055Z",
  "networkType": "ethereum",
  "devdoc": {
    "kind": "dev",
    "methods": {},
    "version": 1
  },
  "userdoc": {
    "kind": "user",
    "methods": {},
    "version": 1
  }
}